S0130000535452494E474F4E4C43442E73726563CA
S11300000C942A000C9447000C9447000C9447006D
S11300100C9447000C9447000C9447000C94470040
S11300200C9447000C9447000C9447000C94470030
S11300300C9447000C9447000C9447000C94470020
S11300400C9447000C9447000C9447000C94470010
S11300500C94470011241FBECFE5D4E0DEBFCDBF12
S113006010E0A0E6B0E0EEEFF2E002C005900D92E1
S1130070AA36B107D9F720E0AAE6B0E001C01D9284
S1130080AB36B207E1F70E942F010C947D010C946A
S1130090000025B32F7030E1839FC0011124822B0F
S11300A085BB9198919A919884E68A95F1F7089581
S11300B0CF93C82F662311F0909A01C0909882B311
S11300C082BB8C2F82958F700E9449008C2F0E94D6
S11300D04900CF91089560E00E945800089561E0BE
S11300E00E945800089580916A00982F946090931C
S11300F06A008C600E946B00089582E00E946B008D
S113010083EF91E00197F1F700C00000089581E0CA
S11301100E946B000E947D0083EF91E00197F1F74C
S113012000C00000089580916A008E7F80936A0069
S113013088600E946B00089580916A00982F9260F5
S113014090936A008A600E946B00089580916A000F
S11301508D7F80936A0088600E946B00089580916F
S11301606A00982F926090936A0086600E946B00E8
S1130170089580916A008E7F80936A0084600E9453
S11301806B00089581B3836081BB84B3806F84BBAB
S113019085EA9EE00197F1F700C0000082B38C7FEE
S11301A082BB80E094E00197F1F700C0000083E097
S11301B00E94490080E094E00197F1F700C000003C
S11301C083E00E94490080E094E00197F1F700C0C9
S11301D0000083E00E94490080E094E00197F1F779
S11301E000C0000082E00E94490088E20E946B0087
S11301F010926A0088E00E946B0010926A0088E006
S11302000E946B000E9473000E9493000E94A6004B
S11302100E94B9000E94AF0082E00E946B0081E05E
S11302200E946B000895643008F063E0E62FF0E06C
S1130230E05AFF4F9081890F80680E946B000895F7
S1130240CF93DF93EC018881882331F021960E94BB
S11302506F0089918111FBCFDF91CF910895CF93E6
S1130260DF9300D000D01F92CDB7DEB785E0E4E67F
S1130270F0E0DE01119601900D928A95E1F70E945B
S1130280C2000E949C0061E081E00E941301CE0143
S113029001960E9420012FEF81EE94E021508040CE
S11302A09040E1F700C000000E94870061E083E015
S11302B00E941301CE0101960E9420012FEF81EECE
S11302C094E0215080409040E1F700C000000E947B
S11302D0870061E082E00E941301CE0101960E9432
S11302E020012FEF81EE94E0215080409040E1F70F
S11102F000C000000E948700C6CFF894FFCF24
S10D02FE004014546D6F6F6F000090
S9030000FC
