:100000000C942A000C9447000C9447000C94470071
:100010000C9447000C9447000C9447000C94470044
:100020000C9447000C9447000C9447000C94470034
:100030000C9447000C9447000C9447000C94470024
:100040000C9447000C9447000C9447000C94470014
:100050000C94470011241FBECFE5D4E0DEBFCDBF16
:1000600010E0A0E6B0E0E6E7F1E002C005900D92F6
:10007000A036B107D9F720E0A0E6B0E001C01D929C
:10008000A036B207E1F70E9449000C94B9000C9425
:1000900000000E946400C0E0D0E002C0C1E0D0E0F7
:1000A0008C2F0E946A002FEF80E792E02150804061
:1000B0009040E1F700C00000C336D10579F32196E6
:1000C000C436D1056CF3E7CF8FEF87BB18BAC49A5B
:1000D000C59A08959DEC899F912D1124969596952A
:1000E0009695990F292F220F220F920F282F291B47
:1000F000922FC49AC59820FD02C0C09801C0C09A32
:1001000091FD02C0C19801C0C19A92FD02C0C6987B
:1001100001C0C69A93FD02C0C79801C0C79AEFEC10
:10012000F7E03197F1F700C000009DEC899F812D29
:100130001124869586958695C498C59A80FD02C03F
:10014000C09801C0C09A81FD02C0C19801C0C19A87
:1001500082FD02C0C69801C0C69A83FD02C0C7983E
:1001600001C0C79A8FEC97E00197F1F700C000003B
:060170000895F894FFCF92
:00000001FF
