S00F0000656C7661746F722E7372656318
S11300000C942A000C9447000C9447000C9447006D
S11300100C9447000C9447000C9447000C94470040
S11300200C9447000C9447000C9447000C94470030
S11300300C9447000C9447000C9447000C94470020
S11300400C9447000C9447000C9447000C94470010
S11300500C94470011241FBECFE5D4E0DEBFCDBF12
S113006010E0A0E6B0E0E2EEF3E002C005900D92ED
S1130070AA36B107D9F720E0AAE6B0E001C01D9284
S1130080AB36B207E1F70E9462010C94EF010C94C5
S1130090000081B38C6181BB81B38F7981BBD3981C
S11300A082B38C6782BBDB9A089582B38C6182BB76
S11300B09298859905C0859BFECF80916000089534
S11300C0869905C0869BFECF809161000895CB99E7
S11300D005C0CB9BFECF80916200089582B38C61F2
S11300E082BB9398859905C0859BFECF8091630060
S11300F00895869905C0869BFECF8091640008957B
S1130100CB9905C0CB9BFECF80916500089582B347
S11301108C6182BB9498859905C0859BFECF8091A4
S113012066000895869905C0869BFECF809167007E
S11301300895CB9905C0CB9BFECF809168000895AC
S113014080E0089525B32F7030E1839FC00111240E
S1130150822B85BB9198919A919884E68A95F1F7C0
S11301600895CF93C82F662311F0909A01C09098F8
S113017082B382BB8C2F82958F700E94A2008C2F39
S11301800E94A200CF91089560E00E94B1000895FA
S113019061E00E94B100089580916A00982F9460F4
S11301A090936A008C600E94C400089582E00E94CB
S11301B0C40083EF91E00197F1F700C000000895B7
S11301C081E00E94C4000E94D60083EF91E0019771
S11301D0F1F700C00000089580916A008E7F80933B
S11301E06A0088600E94C400089580916A008D7F2F
S11301F080936A0088600E94C400089580916A0018
S1130200982F926090936A0086600E94C4000895BB
S113021080916A008E7F80936A0084600E94C4008B
S1130220089581B3836081BB84B3806F84BB85EA06
S11302309EE00197F1F700C0000082B38C7F82BB7F
S113024080E094E00197F1F700C0000083E00E9491
S1130250A20080E094E00197F1F700C0000083E081
S11302600E94A20080E094E00197F1F700C0000032
S113027083E00E94A20080E094E00197F1F700C0BF
S1130280000082E00E94A20088E20E94C400109252
S11302906A0088E00E94C40010926A0088E00E940C
S11302A0C4000E94CC000E94EC000E94F5000E9451
S11302B008010E94FE0082E00E94C40081E00E94C6
S11302C0C4000895CF93DF9300D0CDB7DEB70E946A
S11302D049008F9A0E9411018FE39CE90197F1F77D
S11302E000C00000809169000E94C8001A8219822F
S11302F00E94550090E09A83898389819A81892B91
S1130300B9F38091690029813A81482F50E042175E
S1130310530751F40E94C8008FE19EE40197F1F75E
S113032000C000000E94E00010916900812F90E05D
S113033029813A81821793072CF529813A8128175C
S11303403907C4F010936900812F0E94C8009FEF01
S113035029EF80E0915020408040E1F700C0000088
S11303600E94E0001F5F89819A81212F30E082176B
S1130370930744F7979A8FE19EE40197F1F700C041
S11303800000979810916900812F90E029813A81AB
S1130390281739070CF0AACF29813A8182179307CD
S11303A0ACF010936900812F0E94C8008FE39CE990
S11303B00197F1F700C000000E94E000115089810C
S11303C09A81212F30E0281739075CF7979A8FE13B
S11303D09EE40197F1F700C00000979887CFF89446
S10503E0FFCF49
S10D03E23132333435363738393000
S9030000FC
